{
  "_format": "hh-sol-artifact-1",
  "contractName": "LazyNFT",
  "sourceName": "contracts/LazyMint.sol",
  "abi": [
    {
      "inputs": [
        {
          "internalType": "address payable",
          "name": "minter",
          "type": "address"
        }
      ],
      "stateMutability": "nonpayable",
      "type": "constructor"
    },
    {
      "anonymous": false,
      "inputs": [
        {
          "indexed": true,
          "internalType": "address",
          "name": "owner",
          "type": "address"
        },
        {
          "indexed": true,
          "internalType": "address",
          "name": "approved",
          "type": "address"
        },
        {
          "indexed": true,
          "internalType": "uint256",
          "name": "tokenId",
          "type": "uint256"
        }
      ],
      "name": "Approval",
      "type": "event"
    },
    {
      "anonymous": false,
      "inputs": [
        {
          "indexed": true,
          "internalType": "address",
          "name": "owner",
          "type": "address"
        },
        {
          "indexed": true,
          "internalType": "address",
          "name": "operator",
          "type": "address"
        },
        {
          "indexed": false,
          "internalType": "bool",
          "name": "approved",
          "type": "bool"
        }
      ],
      "name": "ApprovalForAll",
      "type": "event"
    },
    {
      "anonymous": false,
      "inputs": [
        {
          "indexed": true,
          "internalType": "bytes32",
          "name": "role",
          "type": "bytes32"
        },
        {
          "indexed": true,
          "internalType": "bytes32",
          "name": "previousAdminRole",
          "type": "bytes32"
        },
        {
          "indexed": true,
          "internalType": "bytes32",
          "name": "newAdminRole",
          "type": "bytes32"
        }
      ],
      "name": "RoleAdminChanged",
      "type": "event"
    },
    {
      "anonymous": false,
      "inputs": [
        {
          "indexed": true,
          "internalType": "bytes32",
          "name": "role",
          "type": "bytes32"
        },
        {
          "indexed": true,
          "internalType": "address",
          "name": "account",
          "type": "address"
        },
        {
          "indexed": true,
          "internalType": "address",
          "name": "sender",
          "type": "address"
        }
      ],
      "name": "RoleGranted",
      "type": "event"
    },
    {
      "anonymous": false,
      "inputs": [
        {
          "indexed": true,
          "internalType": "bytes32",
          "name": "role",
          "type": "bytes32"
        },
        {
          "indexed": true,
          "internalType": "address",
          "name": "account",
          "type": "address"
        },
        {
          "indexed": true,
          "internalType": "address",
          "name": "sender",
          "type": "address"
        }
      ],
      "name": "RoleRevoked",
      "type": "event"
    },
    {
      "anonymous": false,
      "inputs": [
        {
          "indexed": true,
          "internalType": "address",
          "name": "from",
          "type": "address"
        },
        {
          "indexed": true,
          "internalType": "address",
          "name": "to",
          "type": "address"
        },
        {
          "indexed": true,
          "internalType": "uint256",
          "name": "tokenId",
          "type": "uint256"
        }
      ],
      "name": "Transfer",
      "type": "event"
    },
    {
      "inputs": [],
      "name": "DEFAULT_ADMIN_ROLE",
      "outputs": [
        {
          "internalType": "bytes32",
          "name": "",
          "type": "bytes32"
        }
      ],
      "stateMutability": "view",
      "type": "function"
    },
    {
      "inputs": [],
      "name": "MINTER_ROLE",
      "outputs": [
        {
          "internalType": "bytes32",
          "name": "",
          "type": "bytes32"
        }
      ],
      "stateMutability": "view",
      "type": "function"
    },
    {
      "inputs": [
        {
          "internalType": "address",
          "name": "to",
          "type": "address"
        },
        {
          "internalType": "uint256",
          "name": "tokenId",
          "type": "uint256"
        }
      ],
      "name": "approve",
      "outputs": [],
      "stateMutability": "nonpayable",
      "type": "function"
    },
    {
      "inputs": [
        {
          "internalType": "address",
          "name": "owner",
          "type": "address"
        }
      ],
      "name": "balanceOf",
      "outputs": [
        {
          "internalType": "uint256",
          "name": "",
          "type": "uint256"
        }
      ],
      "stateMutability": "view",
      "type": "function"
    },
    {
      "inputs": [
        {
          "internalType": "uint256",
          "name": "tokenId",
          "type": "uint256"
        }
      ],
      "name": "getApproved",
      "outputs": [
        {
          "internalType": "address",
          "name": "",
          "type": "address"
        }
      ],
      "stateMutability": "view",
      "type": "function"
    },
    {
      "inputs": [],
      "name": "getChainID",
      "outputs": [
        {
          "internalType": "uint256",
          "name": "",
          "type": "uint256"
        }
      ],
      "stateMutability": "view",
      "type": "function"
    },
    {
      "inputs": [
        {
          "internalType": "bytes32",
          "name": "role",
          "type": "bytes32"
        }
      ],
      "name": "getRoleAdmin",
      "outputs": [
        {
          "internalType": "bytes32",
          "name": "",
          "type": "bytes32"
        }
      ],
      "stateMutability": "view",
      "type": "function"
    },
    {
      "inputs": [
        {
          "internalType": "bytes32",
          "name": "role",
          "type": "bytes32"
        },
        {
          "internalType": "address",
          "name": "account",
          "type": "address"
        }
      ],
      "name": "grantRole",
      "outputs": [],
      "stateMutability": "nonpayable",
      "type": "function"
    },
    {
      "inputs": [
        {
          "internalType": "bytes32",
          "name": "role",
          "type": "bytes32"
        },
        {
          "internalType": "address",
          "name": "account",
          "type": "address"
        }
      ],
      "name": "hasRole",
      "outputs": [
        {
          "internalType": "bool",
          "name": "",
          "type": "bool"
        }
      ],
      "stateMutability": "view",
      "type": "function"
    },
    {
      "inputs": [
        {
          "internalType": "address",
          "name": "owner",
          "type": "address"
        },
        {
          "internalType": "address",
          "name": "operator",
          "type": "address"
        }
      ],
      "name": "isApprovedForAll",
      "outputs": [
        {
          "internalType": "bool",
          "name": "",
          "type": "bool"
        }
      ],
      "stateMutability": "view",
      "type": "function"
    },
    {
      "inputs": [],
      "name": "name",
      "outputs": [
        {
          "internalType": "string",
          "name": "",
          "type": "string"
        }
      ],
      "stateMutability": "view",
      "type": "function"
    },
    {
      "inputs": [
        {
          "internalType": "uint256",
          "name": "tokenId",
          "type": "uint256"
        }
      ],
      "name": "ownerOf",
      "outputs": [
        {
          "internalType": "address",
          "name": "",
          "type": "address"
        }
      ],
      "stateMutability": "view",
      "type": "function"
    },
    {
      "inputs": [
        {
          "internalType": "address",
          "name": "redeemer",
          "type": "address"
        },
        {
          "components": [
            {
              "internalType": "uint256",
              "name": "tokenId",
              "type": "uint256"
            },
            {
              "internalType": "uint256",
              "name": "minPrice",
              "type": "uint256"
            },
            {
              "internalType": "string",
              "name": "uri",
              "type": "string"
            },
            {
              "internalType": "bytes",
              "name": "signature",
              "type": "bytes"
            }
          ],
          "internalType": "struct LazyNFT.NFTVoucher",
          "name": "voucher",
          "type": "tuple"
        }
      ],
      "name": "redeem",
      "outputs": [
        {
          "internalType": "uint256",
          "name": "",
          "type": "uint256"
        }
      ],
      "stateMutability": "payable",
      "type": "function"
    },
    {
      "inputs": [
        {
          "internalType": "bytes32",
          "name": "role",
          "type": "bytes32"
        },
        {
          "internalType": "address",
          "name": "account",
          "type": "address"
        }
      ],
      "name": "renounceRole",
      "outputs": [],
      "stateMutability": "nonpayable",
      "type": "function"
    },
    {
      "inputs": [
        {
          "internalType": "bytes32",
          "name": "role",
          "type": "bytes32"
        },
        {
          "internalType": "address",
          "name": "account",
          "type": "address"
        }
      ],
      "name": "revokeRole",
      "outputs": [],
      "stateMutability": "nonpayable",
      "type": "function"
    },
    {
      "inputs": [
        {
          "internalType": "address",
          "name": "from",
          "type": "address"
        },
        {
          "internalType": "address",
          "name": "to",
          "type": "address"
        },
        {
          "internalType": "uint256",
          "name": "tokenId",
          "type": "uint256"
        }
      ],
      "name": "safeTransferFrom",
      "outputs": [],
      "stateMutability": "nonpayable",
      "type": "function"
    },
    {
      "inputs": [
        {
          "internalType": "address",
          "name": "from",
          "type": "address"
        },
        {
          "internalType": "address",
          "name": "to",
          "type": "address"
        },
        {
          "internalType": "uint256",
          "name": "tokenId",
          "type": "uint256"
        },
        {
          "internalType": "bytes",
          "name": "_data",
          "type": "bytes"
        }
      ],
      "name": "safeTransferFrom",
      "outputs": [],
      "stateMutability": "nonpayable",
      "type": "function"
    },
    {
      "inputs": [
        {
          "internalType": "address",
          "name": "operator",
          "type": "address"
        },
        {
          "internalType": "bool",
          "name": "approved",
          "type": "bool"
        }
      ],
      "name": "setApprovalForAll",
      "outputs": [],
      "stateMutability": "nonpayable",
      "type": "function"
    },
    {
      "inputs": [
        {
          "internalType": "bytes4",
          "name": "interfaceId",
          "type": "bytes4"
        }
      ],
      "name": "supportsInterface",
      "outputs": [
        {
          "internalType": "bool",
          "name": "",
          "type": "bool"
        }
      ],
      "stateMutability": "view",
      "type": "function"
    },
    {
      "inputs": [],
      "name": "symbol",
      "outputs": [
        {
          "internalType": "string",
          "name": "",
          "type": "string"
        }
      ],
      "stateMutability": "view",
      "type": "function"
    },
    {
      "inputs": [
        {
          "internalType": "uint256",
          "name": "tokenId",
          "type": "uint256"
        }
      ],
      "name": "tokenURI",
      "outputs": [
        {
          "internalType": "string",
          "name": "",
          "type": "string"
        }
      ],
      "stateMutability": "view",
      "type": "function"
    },
    {
      "inputs": [
        {
          "internalType": "address",
          "name": "from",
          "type": "address"
        },
        {
          "internalType": "address",
          "name": "to",
          "type": "address"
        },
        {
          "internalType": "uint256",
          "name": "tokenId",
          "type": "uint256"
        }
      ],
      "name": "transferFrom",
      "outputs": [],
      "stateMutability": "nonpayable",
      "type": "function"
    }
  ],
  "bytecode": "0x6101406040523480156200001257600080fd5b5060405162004db838038062004db88339818101604052810190620000389190620004b0565b6040518060400160405280600f81526020017f4c617a794e46542d566f756368657200000000000000000000000000000000008152506040518060400160405280600181526020017f31000000000000000000000000000000000000000000000000000000000000008152506040518060400160405280600781526020017f4c617a794e4654000000000000000000000000000000000000000000000000008152506040518060400160405280600481526020017f4c415a5900000000000000000000000000000000000000000000000000000000815250816000908051906020019062000128929190620003e9565b50806001908051906020019062000141929190620003e9565b50505060008280519060200120905060008280519060200120905060007f8b73c3c69bb8fe3d512ecc4cf759cc79239f7b179b0ffacaa9a75d522b39400f90508260e081815250508161010081815250504660a08181525050620001ad8184846200023260201b60201c565b608081815250503073ffffffffffffffffffffffffffffffffffffffff1660c08173ffffffffffffffffffffffffffffffffffffffff1660601b8152505080610120818152505050505050506200022b7f9f2df0fed2c77648de5860a4cc508cd0818c85b8b8a1ab4ceeef8d981c8956a6826200026e60201b60201c565b5062000647565b600083838346306040516020016200024f9594939291906200050f565b6040516020818303038152906040528051906020012090509392505050565b6200028082826200028460201b60201c565b5050565b6200029682826200037660201b60201c565b620003725760016007600084815260200190815260200160002060000160008373ffffffffffffffffffffffffffffffffffffffff1673ffffffffffffffffffffffffffffffffffffffff16815260200190815260200160002060006101000a81548160ff02191690831515021790555062000317620003e160201b60201c565b73ffffffffffffffffffffffffffffffffffffffff168173ffffffffffffffffffffffffffffffffffffffff16837f2f8788117e7eff1d82e926ec794901d17c78024a50270940304540a733656f0d60405160405180910390a45b5050565b60006007600084815260200190815260200160002060000160008373ffffffffffffffffffffffffffffffffffffffff1673ffffffffffffffffffffffffffffffffffffffff16815260200190815260200160002060009054906101000a900460ff16905092915050565b600033905090565b828054620003f790620005c8565b90600052602060002090601f0160209004810192826200041b576000855562000467565b82601f106200043657805160ff191683800117855562000467565b8280016001018555821562000467579182015b828111156200046657825182559160200191906001019062000449565b5b5090506200047691906200047a565b5090565b5b80821115620004955760008160009055506001016200047b565b5090565b600081519050620004aa816200062d565b92915050565b600060208284031215620004c357600080fd5b6000620004d38482850162000499565b91505092915050565b620004e7816200056c565b82525050565b620004f88162000594565b82525050565b6200050981620005be565b82525050565b600060a082019050620005266000830188620004ed565b620005356020830187620004ed565b620005446040830186620004ed565b620005536060830185620004fe565b620005626080830184620004dc565b9695505050505050565b600062000579826200059e565b9050919050565b60006200058d826200059e565b9050919050565b6000819050919050565b600073ffffffffffffffffffffffffffffffffffffffff82169050919050565b6000819050919050565b60006002820490506001821680620005e157607f821691505b60208210811415620005f857620005f7620005fe565b5b50919050565b7f4e487b7100000000000000000000000000000000000000000000000000000000600052602260045260246000fd5b620006388162000580565b81146200064457600080fd5b50565b60805160a05160c05160601c60e051610100516101205161471e6200069a6000396000612960015260006129a201526000612981015260006128b60152600061290c01526000612935015261471e6000f3fe6080604052600436106101355760003560e01c80636352211e116100ab578063a22cb4651161006f578063a22cb46514610451578063b88d4fde1461047a578063c87b56dd146104a3578063d5391393146104e0578063d547741f1461050b578063e985e9c51461053457610135565b80636352211e1461034457806370a082311461038157806391d14854146103be57806395d89b41146103fb578063a217fddf1461042657610135565b806323b872dd116100fd57806323b872dd14610238578063248a9ca3146102615780632f2ff15d1461029e57806336568abe146102c757806342842e0e146102f0578063564b81ef1461031957610135565b806301ffc9a71461013a57806306fdde0314610177578063081812fc146101a257806308708a78146101df578063095ea7b31461020f575b600080fd5b34801561014657600080fd5b50610161600480360381019061015c9190612fa9565b610571565b60405161016e9190613614565b60405180910390f35b34801561018357600080fd5b5061018c610593565b6040516101999190613727565b60405180910390f35b3480156101ae57600080fd5b506101c960048036038101906101c49190612ffb565b610625565b6040516101d691906135ad565b60405180910390f35b6101f960048036038101906101f49190612eb4565b6106aa565b6040516102069190613a49565b60405180910390f35b34801561021b57600080fd5b5061023660048036038101906102319190612f08565b61083a565b005b34801561024457600080fd5b5061025f600480360381019061025a9190612dae565b610952565b005b34801561026d57600080fd5b5061028860048036038101906102839190612f44565b6109b2565b604051610295919061362f565b60405180910390f35b3480156102aa57600080fd5b506102c560048036038101906102c09190612f6d565b6109d2565b005b3480156102d357600080fd5b506102ee60048036038101906102e99190612f6d565b6109f3565b005b3480156102fc57600080fd5b5061031760048036038101906103129190612dae565b610a76565b005b34801561032557600080fd5b5061032e610a96565b60405161033b9190613a49565b60405180910390f35b34801561035057600080fd5b5061036b60048036038101906103669190612ffb565b610aa3565b60405161037891906135ad565b60405180910390f35b34801561038d57600080fd5b506103a860048036038101906103a39190612d49565b610b55565b6040516103b59190613a49565b60405180910390f35b3480156103ca57600080fd5b506103e560048036038101906103e09190612f6d565b610c0d565b6040516103f29190613614565b60405180910390f35b34801561040757600080fd5b50610410610c78565b60405161041d9190613727565b60405180910390f35b34801561043257600080fd5b5061043b610d0a565b604051610448919061362f565b60405180910390f35b34801561045d57600080fd5b5061047860048036038101906104739190612e78565b610d11565b005b34801561048657600080fd5b506104a1600480360381019061049c9190612dfd565b610d27565b005b3480156104af57600080fd5b506104ca60048036038101906104c59190612ffb565b610d89565b6040516104d79190613727565b60405180910390f35b3480156104ec57600080fd5b506104f5610edb565b604051610502919061362f565b60405180910390f35b34801561051757600080fd5b50610532600480360381019061052d9190612f6d565b610eff565b005b34801561054057600080fd5b5061055b60048036038101906105569190612d72565b610f20565b6040516105689190613614565b60405180910390f35b600061057c82610fb4565b8061058c575061058b82611096565b5b9050919050565b6060600080546105a290613dc2565b80601f01602080910402602001604051908101604052809291908181526020018280546105ce90613dc2565b801561061b5780601f106105f05761010080835404028352916020019161061b565b820191906000526020600020905b8154815290600101906020018083116105fe57829003601f168201915b5050505050905090565b600061063082611110565b61066f576040517f08c379a000000000000000000000000000000000000000000000000000000000815260040161066690613989565b60405180910390fd5b6004600083815260200190815260200160002060009054906101000a900473ffffffffffffffffffffffffffffffffffffffff169050919050565b6000806106b68361117c565b90506106e27f9f2df0fed2c77648de5860a4cc508cd0818c85b8b8a1ab4ceeef8d981c8956a682610c0d565b610721576040517f08c379a0000000000000000000000000000000000000000000000000000000008152600401610718906139e9565b60405180910390fd5b8260200135341015610768576040517f08c379a000000000000000000000000000000000000000000000000000000000815260040161075f90613789565b60405180910390fd5b6107768184600001356111ee565b6107d6836000013584806040019061078e9190613abb565b8080601f016020809104026020016040519081016040528093929190818152602001838380828437600081840152601f19601f820116905080830192505050505050506113c8565b6107e58185856000013561143c565b3373ffffffffffffffffffffffffffffffffffffffff166108fc349081150290604051600060405180830381858888f1935050505015801561082b573d6000803e3d6000fd5b50826000013591505092915050565b600061084582610aa3565b90508073ffffffffffffffffffffffffffffffffffffffff168373ffffffffffffffffffffffffffffffffffffffff1614156108b6576040517f08c379a00000000000000000000000000000000000000000000000000000000081526004016108ad906139c9565b60405180910390fd5b8073ffffffffffffffffffffffffffffffffffffffff166108d56116a3565b73ffffffffffffffffffffffffffffffffffffffff1614806109045750610903816108fe6116a3565b610f20565b5b610943576040517f08c379a000000000000000000000000000000000000000000000000000000000815260040161093a906138a9565b60405180910390fd5b61094d83836116ab565b505050565b61096361095d6116a3565b82611764565b6109a2576040517f08c379a000000000000000000000000000000000000000000000000000000000815260040161099990613a09565b60405180910390fd5b6109ad83838361143c565b505050565b600060076000838152602001908152602001600020600101549050919050565b6109db826109b2565b6109e481611842565b6109ee8383611856565b505050565b6109fb6116a3565b73ffffffffffffffffffffffffffffffffffffffff168173ffffffffffffffffffffffffffffffffffffffff1614610a68576040517f08c379a0000000000000000000000000000000000000000000000000000000008152600401610a5f90613a29565b60405180910390fd5b610a728282611937565b5050565b610a9183838360405180602001604052806000815250610d27565b505050565b6000804690508091505090565b6000806002600084815260200190815260200160002060009054906101000a900473ffffffffffffffffffffffffffffffffffffffff169050600073ffffffffffffffffffffffffffffffffffffffff168173ffffffffffffffffffffffffffffffffffffffff161415610b4c576040517f08c379a0000000000000000000000000000000000000000000000000000000008152600401610b43906138e9565b60405180910390fd5b80915050919050565b60008073ffffffffffffffffffffffffffffffffffffffff168273ffffffffffffffffffffffffffffffffffffffff161415610bc6576040517f08c379a0000000000000000000000000000000000000000000000000000000008152600401610bbd906138c9565b60405180910390fd5b600360008373ffffffffffffffffffffffffffffffffffffffff1673ffffffffffffffffffffffffffffffffffffffff168152602001908152602001600020549050919050565b60006007600084815260200190815260200160002060000160008373ffffffffffffffffffffffffffffffffffffffff1673ffffffffffffffffffffffffffffffffffffffff16815260200190815260200160002060009054906101000a900460ff16905092915050565b606060018054610c8790613dc2565b80601f0160208091040260200160405190810160405280929190818152602001828054610cb390613dc2565b8015610d005780601f10610cd557610100808354040283529160200191610d00565b820191906000526020600020905b815481529060010190602001808311610ce357829003601f168201915b5050505050905090565b6000801b81565b610d23610d1c6116a3565b8383611a19565b5050565b610d38610d326116a3565b83611764565b610d77576040517f08c379a0000000000000000000000000000000000000000000000000000000008152600401610d6e90613a09565b60405180910390fd5b610d8384848484611b86565b50505050565b6060610d9482611110565b610dd3576040517f08c379a0000000000000000000000000000000000000000000000000000000008152600401610dca90613969565b60405180910390fd5b6000600660008481526020019081526020016000208054610df390613dc2565b80601f0160208091040260200160405190810160405280929190818152602001828054610e1f90613dc2565b8015610e6c5780601f10610e4157610100808354040283529160200191610e6c565b820191906000526020600020905b815481529060010190602001808311610e4f57829003601f168201915b505050505090506000610e7d611be2565b9050600081511415610e93578192505050610ed6565b600082511115610ec8578082604051602001610eb0929190613518565b60405160208183030381529060405292505050610ed6565b610ed184611bf9565b925050505b919050565b7f9f2df0fed2c77648de5860a4cc508cd0818c85b8b8a1ab4ceeef8d981c8956a681565b610f08826109b2565b610f1181611842565b610f1b8383611937565b505050565b6000600560008473ffffffffffffffffffffffffffffffffffffffff1673ffffffffffffffffffffffffffffffffffffffff16815260200190815260200160002060008373ffffffffffffffffffffffffffffffffffffffff1673ffffffffffffffffffffffffffffffffffffffff16815260200190815260200160002060009054906101000a900460ff16905092915050565b60007f80ac58cd000000000000000000000000000000000000000000000000000000007bffffffffffffffffffffffffffffffffffffffffffffffffffffffff1916827bffffffffffffffffffffffffffffffffffffffffffffffffffffffff1916148061107f57507f5b5e139f000000000000000000000000000000000000000000000000000000007bffffffffffffffffffffffffffffffffffffffffffffffffffffffff1916827bffffffffffffffffffffffffffffffffffffffffffffffffffffffff1916145b8061108f575061108e82611ca0565b5b9050919050565b60007f7965db0b000000000000000000000000000000000000000000000000000000007bffffffffffffffffffffffffffffffffffffffffffffffffffffffff1916827bffffffffffffffffffffffffffffffffffffffffffffffffffffffff19161480611109575061110882610fb4565b5b9050919050565b60008073ffffffffffffffffffffffffffffffffffffffff166002600084815260200190815260200160002060009054906101000a900473ffffffffffffffffffffffffffffffffffffffff1673ffffffffffffffffffffffffffffffffffffffff1614159050919050565b60008061118883611d0a565b90506111e68184806060019061119e9190613a64565b8080601f016020809104026020016040519081016040528093929190818152602001838380828437600081840152601f19601f82011690508083019250505050505050611d95565b915050919050565b600073ffffffffffffffffffffffffffffffffffffffff168273ffffffffffffffffffffffffffffffffffffffff16141561125e576040517f08c379a000000000000000000000000000000000000000000000000000000000815260040161125590613949565b60405180910390fd5b61126781611110565b156112a7576040517f08c379a000000000000000000000000000000000000000000000000000000000815260040161129e90613809565b60405180910390fd5b6112b360008383611dbc565b6001600360008473ffffffffffffffffffffffffffffffffffffffff1673ffffffffffffffffffffffffffffffffffffffff16815260200190815260200160002060008282546113039190613bb6565b92505081905550816002600083815260200190815260200160002060006101000a81548173ffffffffffffffffffffffffffffffffffffffff021916908373ffffffffffffffffffffffffffffffffffffffff160217905550808273ffffffffffffffffffffffffffffffffffffffff16600073ffffffffffffffffffffffffffffffffffffffff167fddf252ad1be2c89b69c2b068fc378daa952ba7f163c4a11628f55a4df523b3ef60405160405180910390a46113c460008383611dc1565b5050565b6113d182611110565b611410576040517f08c379a000000000000000000000000000000000000000000000000000000000815260040161140790613909565b60405180910390fd5b80600660008481526020019081526020016000209080519060200190611437929190612ba5565b505050565b8273ffffffffffffffffffffffffffffffffffffffff1661145c82610aa3565b73ffffffffffffffffffffffffffffffffffffffff16146114b2576040517f08c379a00000000000000000000000000000000000000000000000000000000081526004016114a9906137e9565b60405180910390fd5b600073ffffffffffffffffffffffffffffffffffffffff168273ffffffffffffffffffffffffffffffffffffffff161415611522576040517f08c379a000000000000000000000000000000000000000000000000000000000815260040161151990613829565b60405180910390fd5b61152d838383611dbc565b6115386000826116ab565b6001600360008573ffffffffffffffffffffffffffffffffffffffff1673ffffffffffffffffffffffffffffffffffffffff16815260200190815260200160002060008282546115889190613c97565b925050819055506001600360008473ffffffffffffffffffffffffffffffffffffffff1673ffffffffffffffffffffffffffffffffffffffff16815260200190815260200160002060008282546115df9190613bb6565b92505081905550816002600083815260200190815260200160002060006101000a81548173ffffffffffffffffffffffffffffffffffffffff021916908373ffffffffffffffffffffffffffffffffffffffff160217905550808273ffffffffffffffffffffffffffffffffffffffff168473ffffffffffffffffffffffffffffffffffffffff167fddf252ad1be2c89b69c2b068fc378daa952ba7f163c4a11628f55a4df523b3ef60405160405180910390a461169e838383611dc1565b505050565b600033905090565b816004600083815260200190815260200160002060006101000a81548173ffffffffffffffffffffffffffffffffffffffff021916908373ffffffffffffffffffffffffffffffffffffffff160217905550808273ffffffffffffffffffffffffffffffffffffffff1661171e83610aa3565b73ffffffffffffffffffffffffffffffffffffffff167f8c5be1e5ebec7d5bd14f71427d1e84f3dd0314c0f7b2291e5b200ac8c7c3b92560405160405180910390a45050565b600061176f82611110565b6117ae576040517f08c379a00000000000000000000000000000000000000000000000000000000081526004016117a590613889565b60405180910390fd5b60006117b983610aa3565b90508073ffffffffffffffffffffffffffffffffffffffff168473ffffffffffffffffffffffffffffffffffffffff1614806117fb57506117fa8185610f20565b5b8061183957508373ffffffffffffffffffffffffffffffffffffffff1661182184610625565b73ffffffffffffffffffffffffffffffffffffffff16145b91505092915050565b6118538161184e6116a3565b611dc6565b50565b6118608282610c0d565b6119335760016007600084815260200190815260200160002060000160008373ffffffffffffffffffffffffffffffffffffffff1673ffffffffffffffffffffffffffffffffffffffff16815260200190815260200160002060006101000a81548160ff0219169083151502179055506118d86116a3565b73ffffffffffffffffffffffffffffffffffffffff168173ffffffffffffffffffffffffffffffffffffffff16837f2f8788117e7eff1d82e926ec794901d17c78024a50270940304540a733656f0d60405160405180910390a45b5050565b6119418282610c0d565b15611a155760006007600084815260200190815260200160002060000160008373ffffffffffffffffffffffffffffffffffffffff1673ffffffffffffffffffffffffffffffffffffffff16815260200190815260200160002060006101000a81548160ff0219169083151502179055506119ba6116a3565b73ffffffffffffffffffffffffffffffffffffffff168173ffffffffffffffffffffffffffffffffffffffff16837ff6391f5c32d9c69d2a47ea670b442974b53935d1edc7fd64eb21e047a839171b60405160405180910390a45b5050565b8173ffffffffffffffffffffffffffffffffffffffff168373ffffffffffffffffffffffffffffffffffffffff161415611a88576040517f08c379a0000000000000000000000000000000000000000000000000000000008152600401611a7f90613849565b60405180910390fd5b80600560008573ffffffffffffffffffffffffffffffffffffffff1673ffffffffffffffffffffffffffffffffffffffff16815260200190815260200160002060008473ffffffffffffffffffffffffffffffffffffffff1673ffffffffffffffffffffffffffffffffffffffff16815260200190815260200160002060006101000a81548160ff0219169083151502179055508173ffffffffffffffffffffffffffffffffffffffff168373ffffffffffffffffffffffffffffffffffffffff167f17307eab39ab6107e8899845ad3d59bd9653f200f220920489ca2b5937696c3183604051611b799190613614565b60405180910390a3505050565b611b9184848461143c565b611b9d84848484611e63565b611bdc576040517f08c379a0000000000000000000000000000000000000000000000000000000008152600401611bd3906137c9565b60405180910390fd5b50505050565b606060405180602001604052806000815250905090565b6060611c0482611110565b611c43576040517f08c379a0000000000000000000000000000000000000000000000000000000008152600401611c3a906139a9565b60405180910390fd5b6000611c4d611be2565b90506000815111611c6d5760405180602001604052806000815250611c98565b80611c7784611ffa565b604051602001611c88929190613518565b6040516020818303038152906040525b915050919050565b60007f01ffc9a7000000000000000000000000000000000000000000000000000000007bffffffffffffffffffffffffffffffffffffffffffffffffffffffff1916827bffffffffffffffffffffffffffffffffffffffffffffffffffffffff1916149050919050565b6000611d8e7f6316f9ddd4d59a364f3b95c26bab9d392c3380ace0fff15e91ed76f0d8bcd15a83600001358460200135858060400190611d4a9190613abb565b604051611d589291906134ff565b6040518091039020604051602001611d73949392919061369d565b604051602081830303815290604052805190602001206121a7565b9050919050565b6000806000611da485856121c1565b91509150611db181612244565b819250505092915050565b505050565b505050565b611dd08282610c0d565b611e5f57611df58173ffffffffffffffffffffffffffffffffffffffff166014612595565b611e038360001c6020612595565b604051602001611e14929190613573565b6040516020818303038152906040526040517f08c379a0000000000000000000000000000000000000000000000000000000008152600401611e569190613727565b60405180910390fd5b5050565b6000611e848473ffffffffffffffffffffffffffffffffffffffff1661288f565b15611fed578373ffffffffffffffffffffffffffffffffffffffff1663150b7a02611ead6116a3565b8786866040518563ffffffff1660e01b8152600401611ecf94939291906135c8565b602060405180830381600087803b158015611ee957600080fd5b505af1925050508015611f1a57506040513d601f19601f82011682018060405250810190611f179190612fd2565b60015b611f9d573d8060008114611f4a576040519150601f19603f3d011682016040523d82523d6000602084013e611f4f565b606091505b50600081511415611f95576040517f08c379a0000000000000000000000000000000000000000000000000000000008152600401611f8c906137c9565b60405180910390fd5b805181602001fd5b63150b7a0260e01b7bffffffffffffffffffffffffffffffffffffffffffffffffffffffff1916817bffffffffffffffffffffffffffffffffffffffffffffffffffffffff191614915050611ff2565b600190505b949350505050565b60606000821415612042576040518060400160405280600181526020017f300000000000000000000000000000000000000000000000000000000000000081525090506121a2565b600082905060005b6000821461207457808061205d90613e25565b915050600a8261206d9190613c0c565b915061204a565b60008167ffffffffffffffff8111156120b6577f4e487b7100000000000000000000000000000000000000000000000000000000600052604160045260246000fd5b6040519080825280601f01601f1916602001820160405280156120e85781602001600182028036833780820191505090505b5090505b6000851461219b576001826121019190613c97565b9150600a856121109190613e78565b603061211c9190613bb6565b60f81b818381518110612158577f4e487b7100000000000000000000000000000000000000000000000000000000600052603260045260246000fd5b60200101907effffffffffffffffffffffffffffffffffffffffffffffffffffffffffffff1916908160001a905350600a856121949190613c0c565b94506120ec565b8093505050505b919050565b60006121ba6121b46128b2565b836129cc565b9050919050565b6000806041835114156122035760008060006020860151925060408601519150606086015160001a90506121f7878285856129ff565b9450945050505061223d565b604083511415612234576000806020850151915060408501519050612229868383612b0c565b93509350505061223d565b60006002915091505b9250929050565b6000600481111561227e577f4e487b7100000000000000000000000000000000000000000000000000000000600052602160045260246000fd5b8160048111156122b7577f4e487b7100000000000000000000000000000000000000000000000000000000600052602160045260246000fd5b14156122c257612592565b600160048111156122fc577f4e487b7100000000000000000000000000000000000000000000000000000000600052602160045260246000fd5b816004811115612335577f4e487b7100000000000000000000000000000000000000000000000000000000600052602160045260246000fd5b1415612376576040517f08c379a000000000000000000000000000000000000000000000000000000000815260040161236d90613749565b60405180910390fd5b600260048111156123b0577f4e487b7100000000000000000000000000000000000000000000000000000000600052602160045260246000fd5b8160048111156123e9577f4e487b7100000000000000000000000000000000000000000000000000000000600052602160045260246000fd5b141561242a576040517f08c379a0000000000000000000000000000000000000000000000000000000008152600401612421906137a9565b60405180910390fd5b60036004811115612464577f4e487b7100000000000000000000000000000000000000000000000000000000600052602160045260246000fd5b81600481111561249d577f4e487b7100000000000000000000000000000000000000000000000000000000600052602160045260246000fd5b14156124de576040517f08c379a00000000000000000000000000000000000000000000000000000000081526004016124d590613869565b60405180910390fd5b600480811115612517577f4e487b7100000000000000000000000000000000000000000000000000000000600052602160045260246000fd5b816004811115612550577f4e487b7100000000000000000000000000000000000000000000000000000000600052602160045260246000fd5b1415612591576040517f08c379a000000000000000000000000000000000000000000000000000000000815260040161258890613929565b60405180910390fd5b5b50565b6060600060028360026125a89190613c3d565b6125b29190613bb6565b67ffffffffffffffff8111156125f1577f4e487b7100000000000000000000000000000000000000000000000000000000600052604160045260246000fd5b6040519080825280601f01601f1916602001820160405280156126235781602001600182028036833780820191505090505b5090507f300000000000000000000000000000000000000000000000000000000000000081600081518110612681577f4e487b7100000000000000000000000000000000000000000000000000000000600052603260045260246000fd5b60200101907effffffffffffffffffffffffffffffffffffffffffffffffffffffffffffff1916908160001a9053507f78000000000000000000000000000000000000000000000000000000000000008160018151811061270b577f4e487b7100000000000000000000000000000000000000000000000000000000600052603260045260246000fd5b60200101907effffffffffffffffffffffffffffffffffffffffffffffffffffffffffffff1916908160001a9053506000600184600261274b9190613c3d565b6127559190613bb6565b90505b6001811115612841577f3031323334353637383961626364656600000000000000000000000000000000600f8616601081106127bd577f4e487b7100000000000000000000000000000000000000000000000000000000600052603260045260246000fd5b1a60f81b8282815181106127fa577f4e487b7100000000000000000000000000000000000000000000000000000000600052603260045260246000fd5b60200101907effffffffffffffffffffffffffffffffffffffffffffffffffffffffffffff1916908160001a905350600485901c94508061283a90613d98565b9050612758565b5060008414612885576040517f08c379a000000000000000000000000000000000000000000000000000000000815260040161287c90613769565b60405180910390fd5b8091505092915050565b6000808273ffffffffffffffffffffffffffffffffffffffff163b119050919050565b60007f000000000000000000000000000000000000000000000000000000000000000073ffffffffffffffffffffffffffffffffffffffff163073ffffffffffffffffffffffffffffffffffffffff1614801561292e57507f000000000000000000000000000000000000000000000000000000000000000046145b1561295b577f000000000000000000000000000000000000000000000000000000000000000090506129c9565b6129c67f00000000000000000000000000000000000000000000000000000000000000007f00000000000000000000000000000000000000000000000000000000000000007f0000000000000000000000000000000000000000000000000000000000000000612b6b565b90505b90565b600082826040516020016129e192919061353c565b60405160208183030381529060405280519060200120905092915050565b6000807f7fffffffffffffffffffffffffffffff5d576e7357a4501ddfe92f46681b20a08360001c1115612a3a576000600391509150612b03565b601b8560ff1614158015612a525750601c8560ff1614155b15612a64576000600491509150612b03565b600060018787878760405160008152602001604052604051612a8994939291906136e2565b6020604051602081039080840390855afa158015612aab573d6000803e3d6000fd5b505050602060405103519050600073ffffffffffffffffffffffffffffffffffffffff168173ffffffffffffffffffffffffffffffffffffffff161415612afa57600060019250925050612b03565b80600092509250505b94509492505050565b60008060007f7fffffffffffffffffffffffffffffffffffffffffffffffffffffffffffffff60001b841690506000601b60ff8660001c901c612b4f9190613bb6565b9050612b5d878288856129ff565b935093505050935093915050565b60008383834630604051602001612b8695949392919061364a565b6040516020818303038152906040528051906020012090509392505050565b828054612bb190613dc2565b90600052602060002090601f016020900481019282612bd35760008555612c1a565b82601f10612bec57805160ff1916838001178555612c1a565b82800160010185558215612c1a579182015b82811115612c19578251825591602001919060010190612bfe565b5b509050612c279190612c2b565b5090565b5b80821115612c44576000816000905550600101612c2c565b5090565b6000612c5b612c5684613b37565b613b12565b905082815260208101848484011115612c7357600080fd5b612c7e848285613d56565b509392505050565b600081359050612c9581614675565b92915050565b600081359050612caa8161468c565b92915050565b600081359050612cbf816146a3565b92915050565b600081359050612cd4816146ba565b92915050565b600081519050612ce9816146ba565b92915050565b600082601f830112612d0057600080fd5b8135612d10848260208601612c48565b91505092915050565b600060808284031215612d2b57600080fd5b81905092915050565b600081359050612d43816146d1565b92915050565b600060208284031215612d5b57600080fd5b6000612d6984828501612c86565b91505092915050565b60008060408385031215612d8557600080fd5b6000612d9385828601612c86565b9250506020612da485828601612c86565b9150509250929050565b600080600060608486031215612dc357600080fd5b6000612dd186828701612c86565b9350506020612de286828701612c86565b9250506040612df386828701612d34565b9150509250925092565b60008060008060808587031215612e1357600080fd5b6000612e2187828801612c86565b9450506020612e3287828801612c86565b9350506040612e4387828801612d34565b925050606085013567ffffffffffffffff811115612e6057600080fd5b612e6c87828801612cef565b91505092959194509250565b60008060408385031215612e8b57600080fd5b6000612e9985828601612c86565b9250506020612eaa85828601612c9b565b9150509250929050565b60008060408385031215612ec757600080fd5b6000612ed585828601612c86565b925050602083013567ffffffffffffffff811115612ef257600080fd5b612efe85828601612d19565b9150509250929050565b60008060408385031215612f1b57600080fd5b6000612f2985828601612c86565b9250506020612f3a85828601612d34565b9150509250929050565b600060208284031215612f5657600080fd5b6000612f6484828501612cb0565b91505092915050565b60008060408385031215612f8057600080fd5b6000612f8e85828601612cb0565b9250506020612f9f85828601612c86565b9150509250929050565b600060208284031215612fbb57600080fd5b6000612fc984828501612cc5565b91505092915050565b600060208284031215612fe457600080fd5b6000612ff284828501612cda565b91505092915050565b60006020828403121561300d57600080fd5b600061301b84828501612d34565b91505092915050565b61302d81613ccb565b82525050565b61303c81613cdd565b82525050565b61304b81613ce9565b82525050565b61306261305d82613ce9565b613e6e565b82525050565b60006130748385613b8f565b9350613081838584613d56565b82840190509392505050565b600061309882613b68565b6130a28185613b7e565b93506130b2818560208601613d65565b6130bb81613f65565b840191505092915050565b60006130d182613b73565b6130db8185613b9a565b93506130eb818560208601613d65565b6130f481613f65565b840191505092915050565b600061310a82613b73565b6131148185613bab565b9350613124818560208601613d65565b80840191505092915050565b600061313d601883613b9a565b915061314882613f76565b602082019050919050565b6000613160602083613b9a565b915061316b82613f9f565b602082019050919050565b6000613183602c83613b9a565b915061318e82613fc8565b604082019050919050565b60006131a6601f83613b9a565b91506131b182614017565b602082019050919050565b60006131c9603283613b9a565b91506131d482614040565b604082019050919050565b60006131ec602583613b9a565b91506131f78261408f565b604082019050919050565b600061320f601c83613b9a565b915061321a826140de565b602082019050919050565b6000613232600283613bab565b915061323d82614107565b600282019050919050565b6000613255602483613b9a565b915061326082614130565b604082019050919050565b6000613278601983613b9a565b91506132838261417f565b602082019050919050565b600061329b602283613b9a565b91506132a6826141a8565b604082019050919050565b60006132be602c83613b9a565b91506132c9826141f7565b604082019050919050565b60006132e1603883613b9a565b91506132ec82614246565b604082019050919050565b6000613304602a83613b9a565b915061330f82614295565b604082019050919050565b6000613327602983613b9a565b9150613332826142e4565b604082019050919050565b600061334a602e83613b9a565b915061335582614333565b604082019050919050565b600061336d602283613b9a565b915061337882614382565b604082019050919050565b6000613390602083613b9a565b915061339b826143d1565b602082019050919050565b60006133b3603183613b9a565b91506133be826143fa565b604082019050919050565b60006133d6602c83613b9a565b91506133e182614449565b604082019050919050565b60006133f9602f83613b9a565b915061340482614498565b604082019050919050565b600061341c602183613b9a565b9150613427826144e7565b604082019050919050565b600061343f602183613b9a565b915061344a82614536565b604082019050919050565b6000613462603183613b9a565b915061346d82614585565b604082019050919050565b6000613485601783613bab565b9150613490826145d4565b601782019050919050565b60006134a8601183613bab565b91506134b3826145fd565b601182019050919050565b60006134cb602f83613b9a565b91506134d682614626565b604082019050919050565b6134ea81613d3f565b82525050565b6134f981613d49565b82525050565b600061350c828486613068565b91508190509392505050565b600061352482856130ff565b915061353082846130ff565b91508190509392505050565b600061354782613225565b91506135538285613051565b6020820191506135638284613051565b6020820191508190509392505050565b600061357e82613478565b915061358a82856130ff565b91506135958261349b565b91506135a182846130ff565b91508190509392505050565b60006020820190506135c26000830184613024565b92915050565b60006080820190506135dd6000830187613024565b6135ea6020830186613024565b6135f760408301856134e1565b8181036060830152613609818461308d565b905095945050505050565b60006020820190506136296000830184613033565b92915050565b60006020820190506136446000830184613042565b92915050565b600060a08201905061365f6000830188613042565b61366c6020830187613042565b6136796040830186613042565b61368660608301856134e1565b6136936080830184613024565b9695505050505050565b60006080820190506136b26000830187613042565b6136bf60208301866134e1565b6136cc60408301856134e1565b6136d96060830184613042565b95945050505050565b60006080820190506136f76000830187613042565b61370460208301866134f0565b6137116040830185613042565b61371e6060830184613042565b95945050505050565b6000602082019050818103600083015261374181846130c6565b905092915050565b6000602082019050818103600083015261376281613130565b9050919050565b6000602082019050818103600083015261378281613153565b9050919050565b600060208201905081810360008301526137a281613176565b9050919050565b600060208201905081810360008301526137c281613199565b9050919050565b600060208201905081810360008301526137e2816131bc565b9050919050565b60006020820190508181036000830152613802816131df565b9050919050565b6000602082019050818103600083015261382281613202565b9050919050565b6000602082019050818103600083015261384281613248565b9050919050565b600060208201905081810360008301526138628161326b565b9050919050565b600060208201905081810360008301526138828161328e565b9050919050565b600060208201905081810360008301526138a2816132b1565b9050919050565b600060208201905081810360008301526138c2816132d4565b9050919050565b600060208201905081810360008301526138e2816132f7565b9050919050565b600060208201905081810360008301526139028161331a565b9050919050565b600060208201905081810360008301526139228161333d565b9050919050565b6000602082019050818103600083015261394281613360565b9050919050565b6000602082019050818103600083015261396281613383565b9050919050565b60006020820190508181036000830152613982816133a6565b9050919050565b600060208201905081810360008301526139a2816133c9565b9050919050565b600060208201905081810360008301526139c2816133ec565b9050919050565b600060208201905081810360008301526139e28161340f565b9050919050565b60006020820190508181036000830152613a0281613432565b9050919050565b60006020820190508181036000830152613a2281613455565b9050919050565b60006020820190508181036000830152613a42816134be565b9050919050565b6000602082019050613a5e60008301846134e1565b92915050565b60008083356001602003843603038112613a7d57600080fd5b80840192508235915067ffffffffffffffff821115613a9b57600080fd5b602083019250600182023603831315613ab357600080fd5b509250929050565b60008083356001602003843603038112613ad457600080fd5b80840192508235915067ffffffffffffffff821115613af257600080fd5b602083019250600182023603831315613b0a57600080fd5b509250929050565b6000613b1c613b2d565b9050613b288282613df4565b919050565b6000604051905090565b600067ffffffffffffffff821115613b5257613b51613f36565b5b613b5b82613f65565b9050602081019050919050565b600081519050919050565b600081519050919050565b600082825260208201905092915050565b600081905092915050565b600082825260208201905092915050565b600081905092915050565b6000613bc182613d3f565b9150613bcc83613d3f565b9250827fffffffffffffffffffffffffffffffffffffffffffffffffffffffffffffffff03821115613c0157613c00613ea9565b5b828201905092915050565b6000613c1782613d3f565b9150613c2283613d3f565b925082613c3257613c31613ed8565b5b828204905092915050565b6000613c4882613d3f565b9150613c5383613d3f565b9250817fffffffffffffffffffffffffffffffffffffffffffffffffffffffffffffffff0483118215151615613c8c57613c8b613ea9565b5b828202905092915050565b6000613ca282613d3f565b9150613cad83613d3f565b925082821015613cc057613cbf613ea9565b5b828203905092915050565b6000613cd682613d1f565b9050919050565b60008115159050919050565b6000819050919050565b60007fffffffff0000000000000000000000000000000000000000000000000000000082169050919050565b600073ffffffffffffffffffffffffffffffffffffffff82169050919050565b6000819050919050565b600060ff82169050919050565b82818337600083830152505050565b60005b83811015613d83578082015181840152602081019050613d68565b83811115613d92576000848401525b50505050565b6000613da382613d3f565b91506000821415613db757613db6613ea9565b5b600182039050919050565b60006002820490506001821680613dda57607f821691505b60208210811415613dee57613ded613f07565b5b50919050565b613dfd82613f65565b810181811067ffffffffffffffff82111715613e1c57613e1b613f36565b5b80604052505050565b6000613e3082613d3f565b91507fffffffffffffffffffffffffffffffffffffffffffffffffffffffffffffffff821415613e6357613e62613ea9565b5b600182019050919050565b6000819050919050565b6000613e8382613d3f565b9150613e8e83613d3f565b925082613e9e57613e9d613ed8565b5b828206905092915050565b7f4e487b7100000000000000000000000000000000000000000000000000000000600052601160045260246000fd5b7f4e487b7100000000000000000000000000000000000000000000000000000000600052601260045260246000fd5b7f4e487b7100000000000000000000000000000000000000000000000000000000600052602260045260246000fd5b7f4e487b7100000000000000000000000000000000000000000000000000000000600052604160045260246000fd5b6000601f19601f8301169050919050565b7f45434453413a20696e76616c6964207369676e61747572650000000000000000600082015250565b7f537472696e67733a20686578206c656e67746820696e73756666696369656e74600082015250565b7f616d6f756e742073686f756c642062652067726561746572207468656e204e4660008201527f542773206d696e50726963650000000000000000000000000000000000000000602082015250565b7f45434453413a20696e76616c6964207369676e6174757265206c656e67746800600082015250565b7f4552433732313a207472616e7366657220746f206e6f6e20455243373231526560008201527f63656976657220696d706c656d656e7465720000000000000000000000000000602082015250565b7f4552433732313a207472616e736665722066726f6d20696e636f72726563742060008201527f6f776e6572000000000000000000000000000000000000000000000000000000602082015250565b7f4552433732313a20746f6b656e20616c7265616479206d696e74656400000000600082015250565b7f1901000000000000000000000000000000000000000000000000000000000000600082015250565b7f4552433732313a207472616e7366657220746f20746865207a65726f2061646460008201527f7265737300000000000000000000000000000000000000000000000000000000602082015250565b7f4552433732313a20617070726f766520746f2063616c6c657200000000000000600082015250565b7f45434453413a20696e76616c6964207369676e6174757265202773272076616c60008201527f7565000000000000000000000000000000000000000000000000000000000000602082015250565b7f4552433732313a206f70657261746f7220717565727920666f72206e6f6e657860008201527f697374656e7420746f6b656e0000000000000000000000000000000000000000602082015250565b7f4552433732313a20617070726f76652063616c6c6572206973206e6f74206f7760008201527f6e6572206e6f7220617070726f76656420666f7220616c6c0000000000000000602082015250565b7f4552433732313a2062616c616e636520717565727920666f7220746865207a6560008201527f726f206164647265737300000000000000000000000000000000000000000000602082015250565b7f4552433732313a206f776e657220717565727920666f72206e6f6e657869737460008201527f656e7420746f6b656e0000000000000000000000000000000000000000000000602082015250565b7f45524337323155524953746f726167653a2055524920736574206f66206e6f6e60008201527f6578697374656e7420746f6b656e000000000000000000000000000000000000602082015250565b7f45434453413a20696e76616c6964207369676e6174757265202776272076616c60008201527f7565000000000000000000000000000000000000000000000000000000000000602082015250565b7f4552433732313a206d696e7420746f20746865207a65726f2061646472657373600082015250565b7f45524337323155524953746f726167653a2055524920717565727920666f722060008201527f6e6f6e6578697374656e7420746f6b656e000000000000000000000000000000602082015250565b7f4552433732313a20617070726f76656420717565727920666f72206e6f6e657860008201527f697374656e7420746f6b656e0000000000000000000000000000000000000000602082015250565b7f4552433732314d657461646174613a2055524920717565727920666f72206e6f60008201527f6e6578697374656e7420746f6b656e0000000000000000000000000000000000602082015250565b7f4552433732313a20617070726f76616c20746f2063757272656e74206f776e6560008201527f7200000000000000000000000000000000000000000000000000000000000000602082015250565b7f5369676e617475726520696e76616c6964206f7220756e617574686f72697a6560008201527f6400000000000000000000000000000000000000000000000000000000000000602082015250565b7f4552433732313a207472616e736665722063616c6c6572206973206e6f74206f60008201527f776e6572206e6f7220617070726f766564000000000000000000000000000000602082015250565b7f416363657373436f6e74726f6c3a206163636f756e7420000000000000000000600082015250565b7f206973206d697373696e6720726f6c6520000000000000000000000000000000600082015250565b7f416363657373436f6e74726f6c3a2063616e206f6e6c792072656e6f756e636560008201527f20726f6c657320666f722073656c660000000000000000000000000000000000602082015250565b61467e81613ccb565b811461468957600080fd5b50565b61469581613cdd565b81146146a057600080fd5b50565b6146ac81613ce9565b81146146b757600080fd5b50565b6146c381613cf3565b81146146ce57600080fd5b50565b6146da81613d3f565b81146146e557600080fd5b5056fea2646970667358221220f60725f49c4e44b9171192a17edf7eccb93aa1a37f067b057720b9f7a23d788864736f6c63430008040033",
  "linkReferences": {},
  "deployedLinkReferences": {}
}